{
  "transactions": [
    {
      "hash": "0x81bccdf30a5974c8c11d50aaf549d09547f53eefec898535584607bb0e46e317",
      "transactionType": "CALL",
      "contractName": null,
      "contractAddress": "0x4dabf45c8cf333ef1e874c3fdfc3c86799af80c8",
      "function": "approve(address,uint256)",
      "arguments": [
        "0x000000000022D473030F116dDEE9F6B43aC78BA3",
        "115792089237316195423570985008687907853269984665640564039457584007913129639935"
      ],
      "transaction": {
        "from": "0x3141011f001fb5f1cde0183acddd9434fa473f70",
        "to": "0x4dabf45c8cf333ef1e874c3fdfc3c86799af80c8",
        "gas": "0xfe8e",
        "value": "0x0",
        "input": "0x095ea7b3000000000000000000000000000000000022d473030f116ddee9f6b43ac78ba3ffffffffffffffffffffffffffffffffffffffffffffffffffffffffffffffff",
        "nonce": "0x5",
        "chainId": "0x515"
      },
      "additionalContracts": [],
      "isFixedGasLimit": false
    },
    {
      "hash": "0x9e198b4e3b4580d9b365576870670ba8e7d946f21a6f43594a93ef13dcd600b3",
      "transactionType": "CALL",
      "contractName": null,
      "contractAddress": "0x000000000022d473030f116ddee9f6b43ac78ba3",
      "function": "approve(address,address,uint160,uint48)",
      "arguments": [
        "0x4dABf45C8cF333Ef1e874c3FDFC3C86799af80c8",
        "0xf969Aee60879C54bAAed9F3eD26147Db216Fd664",
        "1461501637330902918203684832716283019655932542975",
        "281474976710655"
      ],
      "transaction": {
        "from": "0x3141011f001fb5f1cde0183acddd9434fa473f70",
        "to": "0x000000000022d473030f116ddee9f6b43ac78ba3",
        "gas": "0x1112d",
        "value": "0x0",
        "input": "0x87517c450000000000000000000000004dabf45c8cf333ef1e874c3fdfc3c86799af80c8000000000000000000000000f969aee60879c54baaed9f3ed26147db216fd664000000000000000000000000ffffffffffffffffffffffffffffffffffffffff0000000000000000000000000000000000000000000000000000ffffffffffff",
        "nonce": "0x6",
        "chainId": "0x515"
      },
      "additionalContracts": [],
      "isFixedGasLimit": false
    },
    {
      "hash": "0x1cc1511cd6ff0ecb3758587f0dd9c5e01b4d07c197dbc8a014a8b0805ae842e9",
      "transactionType": "CALL",
      "contractName": null,
      "contractAddress": "0xf96c5c189a949c73745a277a4acf071b1b9f6df5",
      "function": "approve(address,uint256)",
      "arguments": [
        "0x000000000022D473030F116dDEE9F6B43aC78BA3",
        "115792089237316195423570985008687907853269984665640564039457584007913129639935"
      ],
      "transaction": {
        "from": "0x3141011f001fb5f1cde0183acddd9434fa473f70",
        "to": "0xf96c5c189a949c73745a277a4acf071b1b9f6df5",
        "gas": "0xfe8e",
        "value": "0x0",
        "input": "0x095ea7b3000000000000000000000000000000000022d473030f116ddee9f6b43ac78ba3ffffffffffffffffffffffffffffffffffffffffffffffffffffffffffffffff",
        "nonce": "0x7",
        "chainId": "0x515"
      },
      "additionalContracts": [],
      "isFixedGasLimit": false
    },
    {
      "hash": "0x65fd19b89c638922637844ba5767af1701b3fb3147bcd7156d9418fa1a1ff057",
      "transactionType": "CALL",
      "contractName": null,
      "contractAddress": "0x000000000022d473030f116ddee9f6b43ac78ba3",
      "function": "approve(address,address,uint160,uint48)",
      "arguments": [
        "0xf96c5C189a949C73745a277A4Acf071B1B9f6DF5",
        "0xf969Aee60879C54bAAed9F3eD26147Db216Fd664",
        "1461501637330902918203684832716283019655932542975",
        "281474976710655"
      ],
      "transaction": {
        "from": "0x3141011f001fb5f1cde0183acddd9434fa473f70",
        "to": "0x000000000022d473030f116ddee9f6b43ac78ba3",
        "gas": "0x1112d",
        "value": "0x0",
        "input": "0x87517c45000000000000000000000000f96c5c189a949c73745a277a4acf071b1b9f6df5000000000000000000000000f969aee60879c54baaed9f3ed26147db216fd664000000000000000000000000ffffffffffffffffffffffffffffffffffffffff0000000000000000000000000000000000000000000000000000ffffffffffff",
        "nonce": "0x8",
        "chainId": "0x515"
      },
      "additionalContracts": [],
      "isFixedGasLimit": false
    },
    {
      "hash": "0xacd122369dfc66b404b2f52efb1199cd481816441d00fe635f91f15345f248b2",
      "transactionType": "CALL",
      "contractName": null,
      "contractAddress": "0xf969aee60879c54baaed9f3ed26147db216fd664",
      "function": "multicall(bytes[])",
      "arguments": [
        "[0xf70204050000000000000000000000004dabf45c8cf333ef1e874c3fdfc3c86799af80c8000000000000000000000000f96c5c189a949c73745a277a4acf071b1b9f6df50000000000000000000000000000000000000000000000000000000000000bb8000000000000000000000000000000000000000000000000000000000000003c00000000000000000000000000000000000000000000000000000000000000000000000000000000000000000000000000005758ae05bbf89c0000000000000000000000000000000000000000000000000000000000000000000000000000e00000000000000000000000000000000000000000000000000000000000000000, 0xdd46508f000000000000000000000000000000000000000000000000000000000000004000000000000000000000000000000000000000000000000000000000698441ac0000000000000000000000000000000000000000000000000000000000000400000000000000000000000000000000000000000000000000000000000000004000000000000000000000000000000000000000000000000000000000000000800000000000000000000000000000000000000000000000000000000000000004020d14140000000000000000000000000000000000000000000000000000000000000000000000000000000000000000000000000000000000000000000000040000000000000000000000000000000000000000000000000000000000000080000000000000000000000000000000000000000000000000000000000000024000000000000000000000000000000000000000000000000000000000000002a0000000000000000000000000000000000000000000000000000000000000030000000000000000000000000000000000000000000000000000000000000001a00000000000000000000000004dabf45c8cf333ef1e874c3fdfc3c86799af80c8000000000000000000000000f96c5c189a949c73745a277a4acf071b1b9f6df50000000000000000000000000000000000000000000000000000000000000bb8000000000000000000000000000000000000000000000000000000000000003c0000000000000000000000000000000000000000000000000000000000000000000000000000000000000000000000000000000000000000000000000002f6e800000000000000000000000000000000000000000000000000000000000325c800000000000000000000000000000000000000000000000000030d361a20bdf7000000000000000000000000000000000000000000000000000000174876e800000000000000000000000000000000000000000000000002b5e3af16b18800000000000000000000000000003141011f001fb5f1cde0183acddd9434fa473f700000000000000000000000000000000000000000000000000000000000000180000000000000000000000000000000000000000000000000000000000000000000000000000000000000000000000000000000000000000000000000000000400000000000000000000000004dabf45c8cf333ef1e874c3fdfc3c86799af80c8000000000000000000000000f96c5c189a949c73745a277a4acf071b1b9f6df500000000000000000000000000000000000000000000000000000000000000400000000000000000000000004dabf45c8cf333ef1e874c3fdfc3c86799af80c80000000000000000000000003141011f001fb5f1cde0183acddd9434fa473f700000000000000000000000000000000000000000000000000000000000000040000000000000000000000000f96c5c189a949c73745a277a4acf071b1b9f6df50000000000000000000000003141011f001fb5f1cde0183acddd9434fa473f70]"
      ],
      "transaction": {
        "from": "0x3141011f001fb5f1cde0183acddd9434fa473f70",
        "to": "0xf969aee60879c54baaed9f3ed26147db216fd664",
        "gas": "0x85d84",
        "value": "0x0",
        "input": "0xac9650d800000000000000000000000000000000000000000000000000000000000000200000000000000000000000000000000000000000000000000000000000000002000000000000000000000000000000000000000000000000000000000000004000000000000000000000000000000000000000000000000000000000000001800000000000000000000000000000000000000000000000000000000000000104f70204050000000000000000000000004dabf45c8cf333ef1e874c3fdfc3c86799af80c8000000000000000000000000f96c5c189a949c73745a277a4acf071b1b9f6df50000000000000000000000000000000000000000000000000000000000000bb8000000000000000000000000000000000000000000000000000000000000003c00000000000000000000000000000000000000000000000000000000000000000000000000000000000000000000000000005758ae05bbf89c0000000000000000000000000000000000000000000000000000000000000000000000000000e00000000000000000000000000000000000000000000000000000000000000000000000000000000000000000000000000000000000000000000000000000000000000000000000000000000000000000000000000000000000000464dd46508f000000000000000000000000000000000000000000000000000000000000004000000000000000000000000000000000000000000000000000000000698441ac0000000000000000000000000000000000000000000000000000000000000400000000000000000000000000000000000000000000000000000000000000004000000000000000000000000000000000000000000000000000000000000000800000000000000000000000000000000000000000000000000000000000000004020d14140000000000000000000000000000000000000000000000000000000000000000000000000000000000000000000000000000000000000000000000040000000000000000000000000000000000000000000000000000000000000080000000000000000000000000000000000000000000000000000000000000024000000000000000000000000000000000000000000000000000000000000002a0000000000000000000000000000000000000000000000000000000000000030000000000000000000000000000000000000000000000000000000000000001a00000000000000000000000004dabf45c8cf333ef1e874c3fdfc3c86799af80c8000000000000000000000000f96c5c189a949c73745a277a4acf071b1b9f6df50000000000000000000000000000000000000000000000000000000000000bb8000000000000000000000000000000000000000000000000000000000000003c0000000000000000000000000000000000000000000000000000000000000000000000000000000000000000000000000000000000000000000000000002f6e800000000000000000000000000000000000000000000000000000000000325c800000000000000000000000000000000000000000000000000030d361a20bdf7000000000000000000000000000000000000000000000000000000174876e800000000000000000000000000000000000000000000000002b5e3af16b18800000000000000000000000000003141011f001fb5f1cde0183acddd9434fa473f700000000000000000000000000000000000000000000000000000000000000180000000000000000000000000000000000000000000000000000000000000000000000000000000000000000000000000000000000000000000000000000000400000000000000000000000004dabf45c8cf333ef1e874c3fdfc3c86799af80c8000000000000000000000000f96c5c189a949c73745a277a4acf071b1b9f6df500000000000000000000000000000000000000000000000000000000000000400000000000000000000000004dabf45c8cf333ef1e874c3fdfc3c86799af80c80000000000000000000000003141011f001fb5f1cde0183acddd9434fa473f700000000000000000000000000000000000000000000000000000000000000040000000000000000000000000f96c5c189a949c73745a277a4acf071b1b9f6df50000000000000000000000003141011f001fb5f1cde0183acddd9434fa473f7000000000000000000000000000000000000000000000000000000000",
        "nonce": "0x9",
        "chainId": "0x515"
      },
      "additionalContracts": [],
      "isFixedGasLimit": false
    }
  ],
  "receipts": [
    {
      "status": "0x1",
      "cumulativeGasUsed": "0x33274",
      "logs": [
        {
          "address": "0x4dabf45c8cf333ef1e874c3fdfc3c86799af80c8",
          "topics": [
            "0x8c5be1e5ebec7d5bd14f71427d1e84f3dd0314c0f7b2291e5b200ac8c7c3b925",
            "0x0000000000000000000000003141011f001fb5f1cde0183acddd9434fa473f70",
            "0x000000000000000000000000000000000022d473030f116ddee9f6b43ac78ba3"
          ],
          "data": "0xffffffffffffffffffffffffffffffffffffffffffffffffffffffffffffffff",
          "blockHash": "0xcc55962eb0ac3a1f8c3d91ad88385341378fea464ce34101f438c30974eb83ba",
          "blockNumber": "0x2968668",
          "blockTimestamp": "0x698433b4",
          "transactionHash": "0x1cc1511cd6ff0ecb3758587f0dd9c5e01b4d07c197dbc8a014a8b0805ae842e9",
          "transactionIndex": "0x3",
          "logIndex": "0x1",
          "removed": false
        }
      ],
      "logsBloom": "0x00000000000000000000000000000000000000000000000000000000000000000000000000000000000000000000000000000000800000000000000000200000000010000000000000004000000000000000000000000800000001000000000000000000000000000000000000000000000000000000000002000000000000000000000000000000000000000000000000000000000000000000000000000000020000000000000000000000000000000000000000000000020000000000000000000008000020000000000000000000000000000000000000000000000000000010000000000000000000000000000000000000000000000000000000000000",
      "type": "0x2",
      "transactionHash": "0x1cc1511cd6ff0ecb3758587f0dd9c5e01b4d07c197dbc8a014a8b0805ae842e9",
      "transactionIndex": "0x3",
      "blockHash": "0xcc55962eb0ac3a1f8c3d91ad88385341378fea464ce34101f438c30974eb83ba",
      "blockNumber": "0x2968668",
      "gasUsed": "0xb84c",
      "effectiveGasPrice": "0x7a121",
      "blobGasUsed": "0x9c40",
      "from": "0x3141011f001fb5f1cde0183acddd9434fa473f70",
      "to": "0x4dabf45c8cf333ef1e874c3fdfc3c86799af80c8",
      "contractAddress": null,
      "daFootprintGasScalar": "0x190",
      "l1BaseFeeScalar": "0x7d0",
      "l1BlobBaseFee": "0x3a2b3c0",
      "l1BlobBaseFeeScalar": "0xdbba0",
      "l1Fee": "0x20bcc9c1c",
      "l1GasPrice": "0x3d6ff151",
      "l1GasUsed": "0x640"
    },
    {
      "status": "0x1",
      "cumulativeGasUsed": "0x3ed3e",
      "logs": [
        {
          "address": "0x000000000022d473030f116ddee9f6b43ac78ba3",
          "topics": [
            "0xda9fa7c1b00402c17d0161b249b1ab8bbec047c5a52207b9c112deffd817036b",
            "0x0000000000000000000000003141011f001fb5f1cde0183acddd9434fa473f70",
            "0x0000000000000000000000004dabf45c8cf333ef1e874c3fdfc3c86799af80c8",
            "0x000000000000000000000000f969aee60879c54baaed9f3ed26147db216fd664"
          ],
          "data": "0x000000000000000000000000ffffffffffffffffffffffffffffffffffffffff0000000000000000000000000000000000000000000000000000ffffffffffff",
          "blockHash": "0xcc55962eb0ac3a1f8c3d91ad88385341378fea464ce34101f438c30974eb83ba",
          "blockNumber": "0x2968668",
          "blockTimestamp": "0x698433b4",
          "transactionHash": "0x9e198b4e3b4580d9b365576870670ba8e7d946f21a6f43594a93ef13dcd600b3",
          "transactionIndex": "0x4",
          "logIndex": "0x2",
          "removed": false
        }
      ],
      "logsBloom": "0x00010000000000000000000000000000000000000000000000000000000000000000000000000000000000000000000000000000000000000000000000080000000000000000000000000000000000000000000000000000000000001000000000000000000000000000000000000000000000000040000000000000000000000020000000000000000000000000000000000000000000000000000000000000000000008000000000000000004000000000000000000000020000080000000000000008000020000000000004000000000000000000000040000000000000000000000000000000000000000000000000000000000000000000000000002400",
      "type": "0x2",
      "transactionHash": "0x9e198b4e3b4580d9b365576870670ba8e7d946f21a6f43594a93ef13dcd600b3",
      "transactionIndex": "0x4",
      "blockHash": "0xcc55962eb0ac3a1f8c3d91ad88385341378fea464ce34101f438c30974eb83ba",
      "blockNumber": "0x2968668",
      "gasUsed": "0xbaca",
      "effectiveGasPrice": "0x7a121",
      "blobGasUsed": "0xa8c0",
      "from": "0x3141011f001fb5f1cde0183acddd9434fa473f70",
      "to": "0x000000000022d473030f116ddee9f6b43ac78ba3",
      "contractAddress": null,
      "daFootprintGasScalar": "0x190",
      "l1BaseFeeScalar": "0x7d0",
      "l1BlobBaseFee": "0x3a2b3c0",
      "l1BlobBaseFeeScalar": "0xdbba0",
      "l1Fee": "0x23a00c8ea",
      "l1GasPrice": "0x3d6ff151",
      "l1GasUsed": "0x6cd"
    },
    {
      "status": "0x1",
      "cumulativeGasUsed": "0x4a58a",
      "logs": [
        {
          "address": "0xf96c5c189a949c73745a277a4acf071b1b9f6df5",
          "topics": [
            "0x8c5be1e5ebec7d5bd14f71427d1e84f3dd0314c0f7b2291e5b200ac8c7c3b925",
            "0x0000000000000000000000003141011f001fb5f1cde0183acddd9434fa473f70",
            "0x000000000000000000000000000000000022d473030f116ddee9f6b43ac78ba3"
          ],
          "data": "0xffffffffffffffffffffffffffffffffffffffffffffffffffffffffffffffff",
          "blockHash": "0xcc55962eb0ac3a1f8c3d91ad88385341378fea464ce34101f438c30974eb83ba",
          "blockNumber": "0x2968668",
          "blockTimestamp": "0x698433b4",
          "transactionHash": "0x81bccdf30a5974c8c11d50aaf549d09547f53eefec898535584607bb0e46e317",
          "transactionIndex": "0x5",
          "logIndex": "0x3",
          "removed": false
        }
      ],
      "logsBloom": "0x00000000000000000000000000000000000000000000000000000000000000000000000000000000000000000000000000000000800000000000010000200000000000000000000000004000000000000000000000000800000000000000000000000000000000000000000000000000000000000000000000000000000000000000000000000008000000000000000000000000000004000000000000000000020000000000000000000000000000000000000000000000020000000000000000000008000020000000000000000000000000000000000000000000000000000010000000000000000000000000000000000000000000000000000000000000",
      "type": "0x2",
      "transactionHash": "0x81bccdf30a5974c8c11d50aaf549d09547f53eefec898535584607bb0e46e317",
      "transactionIndex": "0x5",
      "blockHash": "0xcc55962eb0ac3a1f8c3d91ad88385341378fea464ce34101f438c30974eb83ba",
      "blockNumber": "0x2968668",
      "gasUsed": "0xb84c",
      "effectiveGasPrice": "0x7a121",
      "blobGasUsed": "0x9c40",
      "from": "0x3141011f001fb5f1cde0183acddd9434fa473f70",
      "to": "0xf96c5c189a949c73745a277a4acf071b1b9f6df5",
      "contractAddress": null,
      "daFootprintGasScalar": "0x190",
      "l1BaseFeeScalar": "0x7d0",
      "l1BlobBaseFee": "0x3a2b3c0",
      "l1BlobBaseFeeScalar": "0xdbba0",
      "l1Fee": "0x20bcc9c1c",
      "l1GasPrice": "0x3d6ff151",
      "l1GasUsed": "0x640"
    },
    {
      "status": "0x1",
      "cumulativeGasUsed": "0x9b0c6",
      "logs": [
        {
          "address": "0x000000000022d473030f116ddee9f6b43ac78ba3",
          "topics": [
            "0xda9fa7c1b00402c17d0161b249b1ab8bbec047c5a52207b9c112deffd817036b",
            "0x0000000000000000000000003141011f001fb5f1cde0183acddd9434fa473f70",
            "0x000000000000000000000000f96c5c189a949c73745a277a4acf071b1b9f6df5",
            "0x000000000000000000000000f969aee60879c54baaed9f3ed26147db216fd664"
          ],
          "data": "0x000000000000000000000000ffffffffffffffffffffffffffffffffffffffff0000000000000000000000000000000000000000000000000000ffffffffffff",
          "blockHash": "0xcc55962eb0ac3a1f8c3d91ad88385341378fea464ce34101f438c30974eb83ba",
          "blockNumber": "0x2968668",
          "blockTimestamp": "0x698433b4",
          "transactionHash": "0xacd122369dfc66b404b2f52efb1199cd481816441d00fe635f91f15345f248b2",
          "transactionIndex": "0x9",
          "logIndex": "0x7",
          "removed": false
        }
      ],
      "logsBloom": "0x00010000000000000000000000000000000000000000000000000000000000000000000000000000000000000000000000000000000000000000000000080000000000000000000000000000000000000000000000000000000000001000000000000000000000000000000000000000000000000040000000000000000000000020000000000000000000400000000000000000000000000000000000000000000000000000000000000000000000000000000000000000020000080000000000000008000020000000000000004000000000000000000040000000000000000000000000000000000000000000000000000000000008000000000000002400",
      "type": "0x2",
      "transactionHash": "0xacd122369dfc66b404b2f52efb1199cd481816441d00fe635f91f15345f248b2",
      "transactionIndex": "0x9",
      "blockHash": "0xcc55962eb0ac3a1f8c3d91ad88385341378fea464ce34101f438c30974eb83ba",
      "blockNumber": "0x2968668",
      "gasUsed": "0xbaca",
      "effectiveGasPrice": "0x7a121",
      "blobGasUsed": "0xa8c0",
      "from": "0x3141011f001fb5f1cde0183acddd9434fa473f70",
      "to": "0x000000000022d473030f116ddee9f6b43ac78ba3",
      "contractAddress": null,
      "daFootprintGasScalar": "0x190",
      "l1BaseFeeScalar": "0x7d0",
      "l1BlobBaseFee": "0x3a2b3c0",
      "l1BlobBaseFeeScalar": "0xdbba0",
      "l1Fee": "0x23a00c8ea",
      "l1GasPrice": "0x3d6ff151",
      "l1GasUsed": "0x6cd"
    },
    {
      "status": "0x1",
      "cumulativeGasUsed": "0xf690f",
      "logs": [
        {
          "address": "0xf969aee60879c54baaed9f3ed26147db216fd664",
          "topics": [
            "0xddf252ad1be2c89b69c2b068fc378daa952ba7f163c4a11628f55a4df523b3ef",
            "0x0000000000000000000000000000000000000000000000000000000000000000",
            "0x0000000000000000000000003141011f001fb5f1cde0183acddd9434fa473f70",
            "0x00000000000000000000000000000000000000000000000000000000000019c6"
          ],
          "data": "0x",
          "blockHash": "0xcc55962eb0ac3a1f8c3d91ad88385341378fea464ce34101f438c30974eb83ba",
          "blockNumber": "0x2968668",
          "blockTimestamp": "0x698433b4",
          "transactionHash": "0x65fd19b89c638922637844ba5767af1701b3fb3147bcd7156d9418fa1a1ff057",
          "transactionIndex": "0xa",
          "logIndex": "0x8",
          "removed": false
        },
        {
          "address": "0x00b036b58a818b1bc34d502d3fe730db729e62ac",
          "topics": [
            "0xf208f4912782fd25c7f114ca3723a2d5dd6f3bcc3ac8db5af63baa85f711d5ec",
            "0x76799507a9cb9920ac2625f5393c3218fdc650dca6988a76c6126f9c33ffe3d0",
            "0x000000000000000000000000f969aee60879c54baaed9f3ed26147db216fd664"
          ],
          "data": "0x000000000000000000000000000000000000000000000000000000000002f6e800000000000000000000000000000000000000000000000000000000000325c800000000000000000000000000000000000000000000000000030d361a20bdf700000000000000000000000000000000000000000000000000000000000019c6",
          "blockHash": "0xcc55962eb0ac3a1f8c3d91ad88385341378fea464ce34101f438c30974eb83ba",
          "blockNumber": "0x2968668",
          "blockTimestamp": "0x698433b4",
          "transactionHash": "0x65fd19b89c638922637844ba5767af1701b3fb3147bcd7156d9418fa1a1ff057",
          "transactionIndex": "0xa",
          "logIndex": "0x9",
          "removed": false
        },
        {
          "address": "0x4dabf45c8cf333ef1e874c3fdfc3c86799af80c8",
          "topics": [
            "0xddf252ad1be2c89b69c2b068fc378daa952ba7f163c4a11628f55a4df523b3ef",
            "0x0000000000000000000000003141011f001fb5f1cde0183acddd9434fa473f70",
            "0x00000000000000000000000000b036b58a818b1bc34d502d3fe730db729e62ac"
          ],
          "data": "0x000000000000000000000000000000000000000000000000000000057493abea",
          "blockHash": "0xcc55962eb0ac3a1f8c3d91ad88385341378fea464ce34101f438c30974eb83ba",
          "blockNumber": "0x2968668",
          "blockTimestamp": "0x698433b4",
          "transactionHash": "0x65fd19b89c638922637844ba5767af1701b3fb3147bcd7156d9418fa1a1ff057",
          "transactionIndex": "0xa",
          "logIndex": "0xa",
          "removed": false
        }
      ],
      "logsBloom": "0x0000000000000000000000000000000000000000000000000000000000100000000000000000000000000000001000000000000000100000100000000000000000001000000000000008000800000000000000000002000000000100100000000000000002000000000000000000480000000000004000000200001000000000000000000100000000000000000800000000000000000000000000000000000000000400000000000000000000000000080000000000002002000000000000000000000a080020000000000000000000000000000000000000000000000020004000000000000000000000000000000084000000000002000000000000002010",
      "type": "0x2",
      "transactionHash": "0x65fd19b89c638922637844ba5767af1701b3fb3147bcd7156d9418fa1a1ff057",
      "transactionIndex": "0xa",
      "blockHash": "0xcc55962eb0ac3a1f8c3d91ad88385341378fea464ce34101f438c30974eb83ba",
      "blockNumber": "0x2968668",
      "gasUsed": "0x5b849",
      "effectiveGasPrice": "0x7a121",
      "blobGasUsed": "0x1f720",
      "from": "0x3141011f001fb5f1cde0183acddd9434fa473f70",
      "to": "0xf969aee60879c54baaed9f3ed26147db216fd664",
      "contractAddress": null,
      "daFootprintGasScalar": "0x190",
      "l1BaseFeeScalar": "0x7d0",
      "l1BlobBaseFee": "0x3a2b3c0",
      "l1BlobBaseFeeScalar": "0xdbba0",
      "l1Fee": "0x69bb0102d",
      "l1GasPrice": "0x3d6ff151",
      "l1GasUsed": "0x142f"
    }
  ],
  "libraries": [],
  "pending": [],
  "returns": {},
  "timestamp": 1770271669025,
  "chain": 1301,
  "commit": "1fbf955"
}